:0E00000027C0FECFFDCFFCCFFBCF35C1E0C047
:10000E00F8CFF7CFF6CFF5CFF4CFF3CFF2CFF1CFC6
:10001E00F0CFEFCFEECFEDCFECCFEBCFB888000027
:10002E000CF48813010010001980FF0001000C0071
:10003E0002002A000300980036000100B2003A00C8
:10004E000000F894EE27ECBBE5BF8DE0A2E0ED9347
:10005E008A95E9F780E8A0E6ED938A95E9F7ECE357
:10006E00F0E085919591009761F0A591B59105907D
:10007E001590BF01F00105900D920197E1F7FB017C
:10008E00F0CFE0E0E3BBE4BBE5BBEFEDEDBFC0E8D6
:10009E0030C0EFEFFFEFE219F3098E169F0628F03E
:1000AE00EED0EFEFFFEF1F0112C08214930420F089
:1000BE00E6D0222433240BC0E42DF0E0AEEFBFEFE8
:1000CE0030D13196DF01F4011ED12E0E3F1E089560
:1000DE00FAD01A2F0A81EA2DE12319F0D7D0EA2B94
:1000EE0003C0D4D0E095EA23A02DEC93F1D0239653
:1000FE000895E2E3E0938000E4E0E0938100EBE317
:10010E00E0938200E1E0E0938300EBE3E093840070
:10011E00E2E0E0938500E2E3E0938600E0E4E09322
:10012E008700E8E3E0938800E1E0E0938900E8E3EC
:10013E00E0938A00E2E0E0938B00E8E3E0938C002A
:10014E00E4E0E0938D00E8E3E0938E00E8E0E093D6
:10015E008F00E8E3E0939000E0E1E0939100E8E3A4
:10016E00E0939200E0E2E0939300E8E3E0939400E2
:10017E00E0E4E0939500E8E3E0939600E0E8E09396
:10018E009700E3E0EABBE4E0EBBBEFEFE7BBE0E0B8
:10019E00E8BBE7E4E1BBE8E3E2BBE0E0E8BFE2E8AE
:1001AE00E9BF7894E0E0E0BFEA2DE095E2BFE0E041
:1001BE00EFBD3DBC2CBCE4E0E3BFE3E0EEBDFFCF02
:1001CE000A921A92FA926A937A938A939A93AA93BC
:1001DE00BA93EA93FA93EFB7EA9373D0E42DA62D70
:1001EE005CD0AE1BEB2D8AD0E10D0E2FE62DE01B61
:1001FE003E2FEA2DE695AE2FEA2DE795E0E0E79546
:10020E00EA2BAE2EE095E2BF10E0101738F44BD07B
:10021E00AE1BE32FE10F50D01F5FF7CF102F161537
:10022E0038F441D0AE1BE12FE01B46D01F5FF7CF55
:10023E00E1E0EA1549F45394751409F42ADFA0910C
:10024E00B000AF5FA093B00041D02496E991EFBF0C
:10025E00F991E991B991A9919991899179916991C0
:10026E00F990199009901895EA93EFB73DBC2CBC04
:10027E00B3946B1409F4BB24EFBFE9911895E42DE8
:10028E002ED04E2EF40127D04F010895A02FEC91C1
:10029E000E2EA081E02FE181089530D01E2EE42D88
:1002AE00EE0FA1E00895E12FA0E8EE0FEA0FEA931A
:1002BE00A62DA150E42DF1CF21D0E10DE856A0815D
:1002CE0007CF3A932A931A930A9308953B812A8172
:1002DE00198108810895F195E195F0400895EE2376
:1002EE00E1E009F0EE2708950018B9E003C008F424
:1002FE000A0E0694E795BA95D1F7089517D0F4DF54
:10030E000EF4E195089581E10024111805C010F452
:10031E000A0E1B1E16940794F795E7958A95B9F762
:10032E00089510D0F0DF0EF4D6DF0895E894E7FFBD
:10033E0002C0E1956894A7FF04C0A19500F803944C
:10034E0000FA0895E894F7FF02C0C5DF6894B7FF7E
:10035E0006C0B195A195B04000F8039400FA089537
:00000001FF
