:0E00000033C0FECFFDCFFCCFFBCFDAC138C13D
:10000E00F8CFF7CFF6CFF5CFF4CFF3CFF2CFF1CFC6
:10001E00F0CFEFCFEECFEDCFECCFEBCF409C640027
:10002E0088130C001980FF0001001000010002006F
:10003E0080002A00010084002C00020085002E00A2
:10004E0001009F0030000300A10032000100AD004E
:10005E0036000100AE0038000000F894EE27ECBB2D
:10006E00E5BF8DE0A2E0ED938A95E9F780E8A0E682
:10007E00ED938A95E9F7ECE3F0E085919591009781
:10008E0061F0A591B59105901590BF01F001059015
:10009E000D920197E1F7FB01F0CFE0E0E3BBE4BB8B
:1000AE00E5BBEFEDEDBFC0E87BC0A0918000B09145
:1000BE008100EFEFFFEFEA1BFB0BDF01E091850004
:1000CE00F0918600AE1BBF0BA130E4E0BE0708F036
:1000DE0006C0E0918300E03009F001C001C00CC001
:1000EE00E091830090D1E0938300EFEFFBEFE0937C
:1000FE008000F093810034C0E0918500F09186007D
:10010E00A0918000B0918100EA17FB0708F406C0A9
:10011E00E0918300E03009F401C001C00BC0E09112
:10012E00830071D1E0938300E0E0E0938000E093E0
:10013E00810016C0E0918300F0E0AEEFBFEF85D1F5
:10014E003196A0918500B091860071D1A09180006A
:10015E00B0918100EA0FFB1FE0938000F0938100C5
:10016E00089546D10A2F1A81E091AD00E02309F4DB
:10017E000AC0A12FEC910E2EA081E12FE181EA2B76
:10018E00A02DEC930AC0A12FEC910E2EA081E12F91
:10019E00E181E095EA23A02DEC932ED123960895CC
:1001AE00E2E3E0938700E4E0E0938800EBE3E09382
:1001BE008900E1E0E0938A00EBE3E0938B00E2E05C
:1001CE00E0938C00E2E3E0938D00E0E4E0938E0098
:1001DE00E8E3E0938F00E1E0E0939000E8E3E09342
:1001EE009100E2E0E0939200E8E3E0939300E4E014
:1001FE00E0939400E8E3E0939500E8E0E093960046
:10020E00E8E3E0939700E0E1E0939800E8E3E09301
:10021E009900E0E2E0939A00E8E3E0939B00E0E4CB
:10022E00E0939C00E8E3E0939D00E0E8E0939E00FD
:10023E00E3E0EABBE4E0EBBBEFEFE7BBE0E0E8BBFB
:10024E00E7E4E1BBE8E3E2BBE0E0E8BFE2E8E9BFF8
:10025E007894E0E0E0BFE2BFEFBDE0918000F09166
:10026E008100FDBDECBDE4E0E3BFE3E0EEBDFFCFFA
:10027E000A921A92FA926A937A938A939A93AA930B
:10028E00BA93EA93FA93EFB7EA932A931A930A93DF
:10029E00E0918300A0919F00C5D06E2FE091830066
:1002AE00EE0FA1E0F1D0EA1BA091A000BBD0E60FAB
:1002BE001E2FE0919F00E11B2E2F00E0011708F08A
:1002CE001AC0E02FA7E8EE0FEA0FEA93E0919F0025
:1002DE00E150A0918300A6D01E2EE0918300EE0F78
:1002EE00A1E0AE1BE22FE00F9DD0E10DEF55A081F6
:1002FE0038DF0F5FE3CF012FE0919F000E1708F05C
:10030E001AC0E02FA7E8EE0FEA0FEA93E0919F00E4
:10031E00E150A091830086D01E2EE0918300EE0F57
:10032E00A1E0AE1BE02FE11B7DD0E10DEF55A081CA
:10033E0018DF0F5FE1CFA091AD00A13009F018C01A
:10034E00A0918200AF5FA0938200E0918400EA1733
:10035E0009F004C0AADEE0E0E0938200A091AF00B5
:10036E00AF5FA093AF00E091AE00EA1709F000C0B6
:10037E00E091AD00E095E2BFE091AD00E695AE2FC5
:10038E00E091AD00E795E0E0E795EA2BE093AD0054
:10039E00099119912991E991EFBFF991E991B991DB
:1003AE00A9919991899179916991F99019900990F2
:1003BE001895AA93EA93FA93EFB7EA93E091800027
:1003CE00F0918100FDBDECBDA091A000AF5FA093A8
:1003DE00A000E0919F00EA1709F003C0E0E0E0936F
:1003EE00A000E991EFBFF991E991A99118952A938F
:1003FE001A930A9308952A81198108810895F19517
:10040E00E195F0400895EE23E1E009F0EE2708951E
:10041E000018B9E003C008F40A0E0694E795BA95E1
:10042E00D1F7089517D0F4DF0EF4E195089581E128
:10043E000024111805C010F40A0E1B1E1694079402
:10044E00F795E7958A95B9F7089510D0F0DF0EF479
:10045E00D6DF0895E894E7FF02C0E1956894A7FF00
:10046E0004C0A19500F8039400FA0895E894F7FFEC
:10047E0002C0C5DF6894B7FF06C0B195A195B04024
:10048E0000F8039400FA08951A2EAE2FE12D089568
:00000001FF
