:0E00000022C0FECFFDCFFCCFFBCF2DC1DDC057
:10000E00F8CFF7CFF6CFF5CFF4CFF3CFF2CFF1CFC6
:10001E00F0CFEFCFEECFEDCFECCFEBCFB888000027
:10002E000CF4881301001980FF000A0002002A0058
:10003E000300980034000000F894EE27ECBBE5BFF7
:10004E008DE0A2E0ED938A95E9F780E8A0E6ED93C6
:10005E008A95E9F7E8E3F0E085919591009761F0D4
:10006E00A591B59105901590BF01F00105900D92E7
:10007E000197E1F7FB01F0CFE0E0E3BBE4BBE5BBAA
:10008E00EFEDEDBFC0E832C014D1F894E42DF0E0EE
:10009E00AEEFBFEF3ED13196DF01F4012CD1E20D70
:1000AE00F31D8F013FB7789433FF05C0E0D0EFEF1B
:1000BE00FFEF1F0107C032FF04C0D9D02224332422
:1000CE0001C01801FBD024960895F5D01A2F0A818D
:1000DE00EA2DE12319F0D2D0EA2B03C0CFD0E09560
:1000EE00EA23A02DEC93ECD023960895E2E3E0935F
:1000FE008000E4E0E0938100EBE3E0938200E1E036
:10010E00E0938300EBE3E0938400E2E0E09385006C
:10011E00E2E3E0938600E0E4E0938700E8E3E09317
:10012E008800E1E0E0938900E8E3E0938A00E2E0F2
:10013E00E0938B00E8E3E0938C00E4E0E0938D0025
:10014E00E8E3E0938E00E8E0E0938F00E8E3E093CD
:10015E009000E0E1E0939100E8E3E0939200E0E2AA
:10016E00E0939300E8E3E0939400E0E4E0939500DD
:10017E00E8E3E0939600E0E8E0939700E3E0EABB63
:10018E00E4E0EBBBEFEFE7BBE0E0E8BBE7E4E1BBAD
:10019E00E8E3E2BBE0E0E8BFE2E8E9BF7894E0E044
:1001AE00E0BFEA2DE095E2BFE0E0EFBD3DBC2CBC28
:1001BE00E4E0E3BFE3E0EEBDFFCF0A921A92FA92BB
:1001CE006A937A938A939A93AA93BA93EA93FA9339
:1001DE00EFB7EA936ED0E42DA62D57D0AE1BEB2DC4
:1001EE0085D0E10D0E2FE62DE01B3E2FEA2DE69574
:1001FE00AE2FEA2DE795E0E0E795EA2BAE2EE095DF
:10020E00E2BF10E0101738F446D0AE1BE32FE10F1B
:10021E004BD01F5FF7CF102F161538F43CD0AE1B06
:10022E00E12FE01B41D01F5FF7CFE1E0EA1521F48B
:10023E005394751409F428DF41D02496E991EFBF49
:10024E00F991E991B991A9919991899179916991D0
:10025E00F990199009901895EA93EFB73DBC2CBC14
:10026E00B3946B1409F4BB24EFBFE9911895E42DF8
:10027E002ED04E2EF40127D04F010895A02FEC91D1
:10028E000E2EA081E02FE181089530D01E2EE42D98
:10029E00EE0FA1E00895E12FA0E8EE0FEA0FEA932A
:1002AE00A62DA150E42DF1CF21D0E10DE856A0816D
:1002BE000CCF3A932A931A930A9308953B812A817D
:1002CE00198108810895F195E195F0400895EE2386
:1002DE00E1E009F0EE2708950018B9E003C008F434
:1002EE000A0E0694E795BA95D1F7089517D0F4DF64
:1002FE000EF4E195089581E10024111805C010F463
:10030E000A0E1B1E16940794F795E7958A95B9F772
:10031E00089510D0F0DF0EF4D6DF0895E894E7FFCD
:10032E0002C0E1956894A7FF04C0A19500F803945C
:10033E0000FA0895E894F7FF02C0C5DF6894B7FF8E
:10034E0006C0B195A195B04000F8039400FA089547
:00000001FF
