:0C0000002BC0FECFFDCFFCCFFBCFF9C022
:10000C00D1C0F8CFF7CFF6CFF5CFF4CFF3CFF2CFF7
:10001C00F1CFF0CFEFCFEECFEDCFECCFEBCF0000A9
:10002C000C0100000000008000C000E0FFB333B3FF
:10003C007D247D5719573D11060002002A00080047
:10004C00800030000C00880038000000F894EE2787
:10005C00ECBBE5BF8DE0A2E0ED938A95E9F780E873
:10006C00A0E6ED938A95E9F7E4E4F0E085919591AB
:10007C00009761F0A591B59105901590BF01F00125
:10008C0005900D920197E1F7FB01F0CFE0E0E3BBA7
:10009C00E4BBE5BBEFEDEDBFC0E81BC01A931A2F14
:1000AC00E12FE873F0E0FDD019910895F0D01A2FEC
:1000BC000A81A8E8A10FEC91E52119F0CDD0EA2B2B
:1000CC0003C0CAD0E095EA23A02DEC93E3D023968D
:1000DC000895E2E3E0939400E4E0E0939500EBE311
:1000EC00E0939600E1E0E0939700EBE3E093980057
:1000FC00E2E0E0939900E2E3E0939A00E0E4E0931D
:10010C009B00E8E3E0939C00E1E0E0939D00E8E3D2
:10011C00E0939E00E2E0E0939F00E8E3E093A00010
:10012C00E4E0E093A100E8E3E093A200E8E0E093D0
:10013C00A300E8E3E093A400E0E1E093A500E8E38A
:10014C00E093A600E0E2E093A700E8E3E093A800C8
:10015C00E0E4E093A900E8E3E093AA00E0E8E09390
:10016C00AB00E3E0EABBE4E0EBBBEFEFE7BBE0E0C6
:10017C00E8BBE7E4E1BBE8E3E2BBE0E0E8BFE2E8D0
:10018C00E9BF7894E0E0E0BFE52DE095E2BFE0E068
:10019C00EFBDE0E0F0E0FDBDECBDE4E0E3BFE3E08B
:1001AC00EEBDFFCF60D073D0072DE52DE695AE2FB9
:1001BC00E52DE795E0E0E795EA2B5E2EE095E2BFB2
:1001CC0010E0133098F4E02FF0E03396DF01E12FCC
:1001DC00F0E0AE1BBF0B55D0EA0FEA93E22DA6E080
:1001EC0071D0E10FAE2F62DF1F5FEBCF0991199138
:1001FC0025C039D0E0B3AE2F51DF3E2EE370A0E81E
:10020C00EE0FAE0F91D0FDBDECBDE32DE695E6955E
:10021C002E2E7394471409F47724A72DBB2731D0C5
:10022C00AE0FEC911E2E0080E72DA4E9EE0FAE0F61
:10023C00AF5FEC91E095E021A12DEC93E991EFBF3C
:10024C00F991E991B991A9919991899179916991D2
:10025C00F990199009901895A02FEC910E2EA08171
:10026C00E02FE18108950A921A92FA926A937A9396
:10027C008A939A93AA93BA93EA93FA93EFB7EA9371
:10028C000895ECE0F0E036D0A4E9EE0F08951A934F
:10029C000A930895198108810895F195E195F0402C
:1002AC000895F595E795F595E795F595E7950895F6
:1002BC000018B9E003C008F40A0E0694E795BA9545
:1002CC00D1F7089525D0F4DF0EF4E19508950024BC
:1002DC00112490E1AA0FBB1F001C111C0E1A1F0A3F
:1002EC0018F40E0E1F1E01C0A1609A9599F7FD011E
:1002FC00D0010895E894B7FF04C0B195A195B04022
:10030C006894F7FDCADFE3DFFD010EF4C6DF089544
:10031C00E894E7FF02C0E1956894A7FF04C0A1959B
:10032C0000F8039400FA0895ED91FC91AA950895B4
:00000001FF
