:0E00000030C0FECFFDCFFCCFFBCF03C1D1C07F
:10000E00F8CFF7CFF6CFF5CFF4CFF3CFF2CFF1CFC6
:10001E00F0CFEFCFEECFEDCFECCFEBCF00000B015B
:10002E000000000801050902060A0000008066A60D
:10003E00FF8019FF9933FFB34D00060002002A001E
:10004E00080080003000060088003800090090008B
:10005E003E000000F894EE27ECBBE5BF8DE0A2E079
:10006E00ED938A95E9F780E8A0E6ED938A95E9F796
:10007E00E8E4F0E085919591009761F0A591B59136
:10008E0005901590BF01F00105900D920197E1F7D3
:10009E00FB01F0CFE0E0E3BBE4BBE5BBEFEDEDBF72
:1000AE00C0E819C01A931A2FE12FE873F0E004D1BB
:1000BE0019910895F7D01A2F0A81E52DE12319F031
:1000CE00DCD0EA2B03C0D9D0E095EA23A02DEC9327
:1000DE00ECD023960895E2E3E0939900E4E0E093F8
:1000EE009A00EBE3E0939B00E1E0E0939C00EBE3EE
:1000FE00E0939D00E2E0E0939E00E2E3E0939F0038
:10010E00E0E4E093A000E8E3E093A100E1E0E093F7
:10011E00A200E8E3E093A300E2E0E093A400E8E3AA
:10012E00E093A500E4E0E093A600E8E3E093A700E7
:10013E00E8E0E093A800E8E3E093A900E0E1E093B3
:10014E00AA00E8E3E093AB00E0E2E093AC00E8E362
:10015E00E093AD00E0E4E093AE00E8E3E093AF009F
:10016E00E0E8E093B000E3E0EABBE4E0EBBBEFEFE6
:10017E00E7BBE0E0E8BBE7E4E1BBE8E3E2BBE0E0DD
:10018E00E8BFE2E8E9BF7894E0E0E0BFE2BFEFBD90
:10019E00E0E0F0E0FDBDECBDE4E0E3BFE3E0EEBD8A
:1001AE00FFCF72D07FD0072D10E01330C0F4E02FB8
:1001BE00F0E03396DF01E12FF0E0AE1BBF0BE42D34
:1001CE00F0E0B4D0A9E9EE0FEA0FEA93E22DA3E036
:1001DE0084D0E10FE057A0816DDF1F5FE6CFEFEA1D
:1001EE00EA93A0EF67DFE52DE095E2BFE52DE695FA
:1001FE00AE2FE52DE795E0E0E795EA2B5E2E09910F
:10020E0019912DC041D0E0B3AE2F4CDF3E2EA0E8A9
:10021E00A30DEC91E370A8E8EE0FAE0FED91FD91FA
:10022E00FDBDECBDA0E8A30DEC91E695E6952E2E56
:10023E007394471409F47724E42DA72D74D0A9E9FB
:10024E00EE0FAE0FEC911E2E0080E72DA9E9EE0FFA
:10025E00AE0FAF5FEC91E095E021A12DEC93E9910B
:10026E00EFBFF991E991B991A991999189917991FC
:10027E006991F990199009901895A02FEC910E2E76
:10028E00A081E02FE18108950A921A92FA926A9360
:10029E007A938A939A93AA93BA93EA93FA93EFB7BF
:1002AE00EA9308951A930A9308951981088108957F
:1002BE00F195E195F0400895F595E795F595E7955B
:1002CE00F595E79508950018B9E003C008F40A0EF5
:1002DE000694E795BA95D1F7089536D0F4DF0EF46B
:1002EE00E1950895002498E0AA0F001C0E1A10F450
:1002FE000E0E01C0A1609A95B9F7EA2FA02D0895B0
:10030E000024112490E1AA0FBB1F001C111C0E1A11
:10031E001F0A18F40E0E1F1E01C0A1609A9599F7C0
:10032E00FD01D0010895DEDFEA2F0895E894B7FFAE
:10033E0004C0B195A195B0406894F7FDB9DFE0DF38
:10034E00FD010EF4B5DF0895E894E7FF02C0E195D4
:10035E006894A7FF04C0A19500F8039400FA0895CD
:00000001FF
