:0C00000039C0FECFFDCFFCCFFBCFC1C14B
:10000C006AC1F8CFF7CFF6CFF5CFF4CFF3CFF2CF5D
:10001C00F1CFF0CFEFCFEECFEDCFECCFEBCF409CCD
:10002C0000000C648813010000641980FF00198023
:10003C00FF000000000000000000000102011100A0
:10004C000F000C0002002A00030098003600030089
:10005C00A4003A000C00B0003E000100BC004A00B5
:10006C000100BD004C000000F894EE27ECBBE5BF8E
:10007C008DE0A2E0ED938A95E9F780E8A0E6ED9398
:10008C008A95E9F7EEE4F0E085919591009761F09F
:10009C00A591B59105901590BF01F00105900D92B9
:1000AC000197E1F7FB01F0CFE0E0E3BBE4BBE5BB7C
:1000BC00EFEDEDBFC0E8ABC0EFEFFFEFE219F309D6
:1000CC00E819F909E130A4E0FA0710F4442009F02A
:1000DC0007C0E42D9CD14E2EEFEFFBEF1F0117C094
:1000EC008214930410F0442009F406C0E42D8FD13F
:1000FC004E2E222433240BC0E42DF0E0AEEFBFEFE4
:10010C00A8D13196DF01F40196D12E0E3F1E089531
:10011C0070D110E0161508F057C0A0EB3DD1E030BF
:10012C0009F450C0A8E9A10F6C917727A091BE00EB
:10013C00BB27E091BD00F0E08CD1E60FF71F9F01CB
:10014C00A0EBA10FAC91A130C9F42030E1E03E0747
:10015C0018F425D1208311C02F3FE1E03E0728F48D
:10016C00A12FAC55EEEFE21B07C01CD11DD128F01E
:10017C00A12FAC55E22FEE5FEC9324C013D11AD112
:10018C00E217F30728F00BD10E2E0CD1EE0F17C08F
:10019C0009D110D1E150FF4FE217F30740F0FFD027
:1001AC000E2E00D1EE0FAE2FE22FEA1B09C0FAD0B3
:1001BC00FBD040F0F4D00E2EF5D0EE0FE250E21B47
:1001CC00A02DEC931F5FA6CFA091BE00AF5FA093B4
:1001DC00BE00E091BC00EED0B0E0EA17FB0719F4CA
:1001EC00E0E0E093BE000AD12496089504D11A2FC2
:1001FC000A81EA2DE12319F0E1D0EA2B03C0DED00D
:10020C00E095EA23A02DEC93FBD023960895E2E32E
:10021C00E0938000E4E0E0938100EBE3E093820064
:10022C00E1E0E0938300EBE3E0938400E2E0E09311
:10023C008500E2E3E0938600E0E4E0938700E8E3E6
:10024C00E0938800E1E0E0938900E8E3E0938A0022
:10025C00E2E0E0938B00E8E3E0938C00E4E0E093D1
:10026C008D00E8E3E0938E00E8E0E0938F00E8E394
:10027C00E0939000E0E1E0939100E8E3E0939200DA
:10028C00E0E2E0939300E8E3E0939400E0E4E09391
:10029C009500E8E3E0939600E0E8E0939700E3E054
:1002AC00EABBE4E0EBBBEFEFE7BBE0E0E8BBE7E485
:1002BC00E1BBE8E3E2BBE0E0E8BFE2E8E9BF789449
:1002CC00E0E0E0BFE2BFEFBD3DBC2CBCE4E0E3BF2F
:1002DC00E3E0EEBDFFCF0A921A92FA926A937A93F8
:1002EC008A939A93AA93BA93EA93FA93EFB7EA9301
:1002FC0080D0E42DA62D69D0AE1BEB2D97D0E10D4F
:10030C000E2FE62DE01B3E2F10E0101738F463D0B3
:10031C00AE1BE32FE10F68D01F5FF7CF102F161520
:10032C0038F459D0AE1BE12FE01B5ED01F5FF7CF26
:10033C00E1E0EA1551F45394751411F45524BCDE24
:10034C00C394DC1411F4CC24E3DEEA2DE095E2BF77
:10035C00EA2DE695AE2FEA2DE795E0E0E795EA2B3E
:10036C00AE2E4CD02496E991EFBFF991E991B99159
:10037C00A9919991899179916991F9901990099024
:10038C001895EA93EFB73DBC2CBCB3946B1409F4ED
:10039C00BB24EFBFE9911895A10FEC910895E12FC3
:1003AC00EC550895A8E9F8CFF0E0E250FE4FE217C3
:1003BC00F3070895F0E0EE0FFF1F0895A02FEC91C6
:1003CC000E2EA081E02FE181089530D01E2EE42D59
:1003DC00EE0FA1E00895E12FA0E8EE0FEA0FEA93EB
:1003EC00A62DA150E42DF1CF21D0E10DEC55A0812B
:1003FC00FDCE3A932A931A930A9308953B812A814E
:10040C00198108810895F195E195F0400895EE2346
:10041C00E1E009F0EE2708950018B9E003C008F4F4
:10042C000A0E0694E795BA95D1F7089517D0F4DF24
:10043C000EF4E195089581E10024111805C010F423
:10044C000A0E1B1E16940794F795E7958A95B9F733
:10045C00089510D0F0DF0EF4D6DF0895E894E7FF8E
:10046C0002C0E1956894A7FF04C0A19500F803941D
:10047C0000FA0895E894F7FF02C0C5DF6894B7FF4F
:10048C0006C0B195A195B04000F8039400FA089508
:00000001FF
