:040000001FC0FECF50
:10000400FDCFFCCFFBCFF5C0B4C0F8CFF7CFF6CF10
:10001400F5CFF4CFF3CFF2CFF1CFF0CFEFCFEECFD8
:10002400EDCFECCFEBCF0C010000801002000400F8
:1000340002002A00030080002E000000F894EE273E
:10004400ECBBE5BF8DE0A2E0ED938A95E9F780E88B
:10005400A0E6ED938A95E9F7E2E3F0E085919591C6
:10006400009761F0A591B59105901590BF01F0013D
:1000740005900D920197E1F7FB01F0CFE0E0E3BBBF
:10008400E4BBE5BBEFEDEDBFC0E813C0D6D01A2F3B
:100094000A81A0E8A10FEC91E32119F0B9D0EA2B71
:1000A40003C0B6D0E095EA23A02DEC93C9D02396E3
:1000B4000895E2E3E0938300E4E0E0938400EBE35B
:1000C400E0938500E1E0E0938600EBE3E0938700B2
:1000D400E2E0E0938800E2E3E0938900E0E4E09367
:1000E4008A00E8E3E0938B00E1E0E0938C00E8E32E
:1000F400E0938D00E2E0E0938E00E8E3E0938F006C
:10010400E4E0E0939000E8E3E0939100E8E0E0931A
:100114009200E8E3E0939300E0E1E0939400E8E3E5
:10012400E0939500E0E2E0939600E8E3E093970023
:10013400E0E4E0939800E8E3E0939900E0E8E093DA
:100144009A00E3E0EABBEFEFE7BBE7E4E1BBE0E002
:10015400E8BFE2E8E9BF7894E0E0E0BFE32DE09592
:10016400E2BFE0E0EFBD5BD0E4E0E3BFE2E0EEBD80
:10017400FFCF0A921A92FA926A937A938A939A9385
:10018400AA93BA93EA93FA93EFB7EA931A93152DC5
:10019400E32DE695AE2FE32DE795E0E0E795EA2B16
:1001A4003E2EE095E2BFE12FF0E031963DD0A0E095
:1001B4006DDFA12FBB27ECE0F0E05CD0A3E8EE0FED
:1001C400EA0FEA93A1E062DFE12FF0E031972CD04F
:1001D400A2E05CDF1991E991EFBFF991E991B9913E
:1001E400A9919991899179916991F99019900990BE
:1001F4001895EA93FA93EFB7EA9311D05394EDE08C
:10020400E51509F45524E991EFBFF991E9911895A1
:10021400A02FEC910E2EA081E02FE1810895E0E063
:10022400F0E0FDBDECBD0895DF01ECE0F0E022D08C
:10023400A3E8EE0FEA0FEA9308951A930A93089538
:10024400198108810895F195E195F04008950024FD
:10025400112490E1AA0FBB1F001C111C0E1A1F0AC7
:1002640018F40E0E1F1E01C0A1609A9599F7FD01A6
:10027400D0010895E894B7FF04C0B195A195B040AA
:100284006894F7FDE0DFE3DFFD010EF4DCDF0895A1
:00000001FF
