:0800000030C0FECFFDCFFCCFA4
:10000800FBCF40C1D0C0F8CFF7CFF6CFF5CFF4CFB4
:10001800F3CFF2CFF1CFF0CFEFCFEECFEDCFECCFE4
:10002800EBCF00000B010000000801050902060AD9
:100038000000008066A6FF8019FF9933FFB34D00CA
:10004800060002002A000800800030000600880030
:100058003800090090003E000000F894EE27ECBB41
:10006800E5BF8DE0A2E0ED938A95E9F780E8A0E688
:10007800ED938A95E9F7E8E4F0E08591959100978A
:1000880061F0A591B59105901590BF01F00105901B
:100098000D920197E1F7FB01F0CFE0E0E3BBE4BB91
:1000A800E5BBEFEDEDBFC0E819C01A931A2FE12F99
:1000B800E873F0E063D11991089556D11A2F0A8197
:1000C800E52DE12319F01FD1EA2B03C01CD1E095DF
:1000D800EA23A02DEC934BD123960895E2E3E09315
:1000E8009900E4E0E0939A00EBE3E0939B00E1E001
:1000F800E0939C00EBE3E0939D00E2E0E0939E0038
:10010800E2E3E0939F00E0E4E093A000E8E3E093FB
:10011800A100E1E0E093A200E8E3E093A300E2E0BD
:10012800E093A400E8E3E093A500E4E0E093A600F0
:10013800E8E3E093A700E8E0E093A800E8E3E093B1
:10014800A900E0E1E093AA00E8E3E093AB00E0E275
:10015800E093AC00E8E3E093AD00E0E4E093AE00A8
:10016800E8E3E093AF00E0E8E093B000E3E0EABB47
:10017800E4E0EBBBEFEFE7BBE0E0E8BBE7E4E1BBC3
:10018800E8E3E2BBE0E0E8BFE2E8E9BF7894E0E05A
:10019800E0BFE2BFEFBDE0E0F0E0FDBDECBDE4E0B4
:1001A800E3BFEEBDFFCFB6D0DFD0072D033040F45C
:1001B80010E0011720F0BCD0C1D01F5FFACF53C0A8
:1001C8000B3080F410E0133060F4E02FE11BC0D056
:1001D800E22DA3E0E4D0E10FE057A0816EDF1F5FBE
:1001E800F2CF41C00D30C0F410E0A02FBB27E42DA2
:1001F800F0E0EDD0A2E0B0E004D1EA1BFB0BA12FA8
:10020800B0E0AE17BF073CF4E12FE00FE250A0D0FA
:1002180095D01F5FEACF27C0023140F4EFEAEA9396
:10022800E02FEC50A3E3BBD0AE2F1CC0073168F41D
:1002380010E0141548F47CD0E02FE151A3E3AFD0CF
:10024800AE2F3BDF1F5FF5CF0EC00C3160F410E01E
:10025800141528F46DD081D030DF1F5FF9CFEFEA95
:10026800EA937BD02ADFE52DE095E2BFE52DE69500
:10027800AE2FE52DE795E0E0E795EA2B5E2E099194
:10028800199133C047D01A93E0B3AE2F0EDF3E2E3C
:10029800A0E8A30DEC91E370A8E8EE0FAE0FED9186
:1002A800FD91FDBDECBDA0E8A30DEC91E695E695AA
:1002B8002E2E7394ECE1E71509F4772410E0141559
:1002C80098F4E12FA9E9EE0FAE0FEC911E2E0080F5
:1002D800E12FA9E9EE0FAE0FAF5FEC91E095E021B9
:1002E800A12DEC931F5FEBCF1991E991EFBFF99125
:1002F800E991B991A9919991899179916991F99027
:10030800199009901895A02FEC910E2EA081E02F3E
:10031800E18108950A921A92FA926A937A938A93DB
:100328009A93AA93BA93EA93FA93EFB7EA93089544
:10033800E12FA9E9EE0FEA0FEA930895E2E0E11B45
:100348001E2EE22DA3E02BD0E10DE057A081B5CE03
:10035800A9E9EE0FEA0FEA930895E02FE651A3E327
:100368001ED0AFEFAE1B08951A930A930895198112
:1003780008810895F195E195F0400895F595E79580
:10038800F595E795F595E79508950018B9E003C048
:1003980008F40A0E0694E795BA95D1F7089525D082
:1003A800F4DF0EF4E19508950024112490E1AA0FDA
:1003B800BB1F001C111C0E1A1F0A18F40E0E1F1E5C
:1003C80001C0A1609A9599F7FD01D0010895E894BC
:1003D800B7FF04C0B195A195B0406894F7FDCADF96
:1003E800E3DFFD010EF4C6DF0895E894E7FF02C0DD
:1003F800E1956894A7FF04C0A19500F8039400FA5A
:1004080008951B2EBF2FF12D1A2EAE2FE12D089522
:00000001FF
