:100000001FC0FECFFDCFFCCFFBCFF3C0B7C0F8CFF2
:10001000F7CFF6CFF5CFF4CFF3CFF2CFF1CFF0CFCC
:10002000EFCFEECFEDCFECCFEBCF0C0100004010C7
:100030000200040002002A00030080002E000000DD
:10004000F894EE27ECBBE5BF8DE0A2E0ED938A9536
:10005000E9F780E8A0E6ED938A95E9F7E2E3F0E0BE
:1000600085919591009761F0A591B59105901590B6
:10007000BF01F00105900D920197E1F7FB01F0CF70
:10008000E0E0E3BBE4BBE5BBEFEDEDBFC0E813C0D0
:10009000ECD01A2F0A81A0E8A10FEC91E32119F00E
:1000A000D4D0EA2B03C0D1D0E095EA23A02DEC9365
:1000B000DFD023960895E2E3E0938300E4E0E09349
:1000C0008400EBE3E0938500E1E0E0938600EBE35E
:1000D000E0938700E2E0E0938800E2E3E0938900A8
:1000E000E0E4E0938A00E8E3E0938B00E1E0E09352
:1000F0008C00E8E3E0938D00E2E0E0938E00E8E31B
:10010000E0938F00E4E0E0939000E8E3E093910057
:10011000E8E0E0939200E8E3E0939300E0E1E0930D
:100120009400E8E3E0939500E0E2E0939600E8E3D2
:10013000E0939700E0E4E0939800E8E3E09399000F
:10014000E0E8E0939A00E3E0EABBEFEFE7BBE7E427
:10015000E1BBE0E0E8BFE2E8E9BF7894E0E0E0BFBF
:10016000E32DE095E2BFE0E0EFBDE0E0F0E0FDBDB3
:10017000ECBDE4E0E3BFE3E0EEBDFFCF0A921A92EC
:10018000FA926A937A938A939A93AA93BA93EA9388
:10019000FA93EFB7EA931A93152DE32DE695AE2F58
:1001A000E32DE795E0E0E795EA2B3E2EE095E2BFF0
:1001B000E12FF0E0339650D0A0E06ADFE12FF0E0CD
:1001C00032964AD0A1E064DFE12FF0E0319644D0CE
:1001D000A2E05EDF1991E991EFBFF991E991B99140
:1001E000A9919991899179916991F99019900990C2
:1001F00018950A921A929A93AA93BA93EA93FA9349
:10020000EFB7EA935394251409F45524A52DBB2781
:10021000ECE0F0E047D0A3E8EE0FAE0FEC911E2E1D
:100220000080E52DA3E8EE0FAE0FAF5FEC91E095F7
:10023000E021A12DEC93E991EFBFF991E991B991FA
:10024000A9919991199009901895A02FEC910E2ED3
:10025000A081E02FE1810895DF01ECE0F0E022D001
:10026000A3E8EE0FEA0FEA9308951A930A9308950C
:10027000198108810895F195E195F04008950024D1
:10028000112490E1AA0FBB1F001C111C0E1A1F0A9B
:1002900018F40E0E1F1E01C0A1609A9599F7FD017A
:1002A000D0010895E894B7FF04C0B195A195B0407E
:1002B0006894F7FDE0DFE3DFFD010EF4DCDF089575
:00000001FF
